:020000040000FA
:060000000A128A11E82F2C
:100950008316031306083F38860008000A128A111E
:10096000A8240A128A110A128A11C4240A128A11AE
:1009700008003F3406345B344F3466346D347D34C4
:1009800007347F346F34013483160313880105085C
:10099000C3398500831203130508C3398500080095
:1009A0007E088A007F0882000A128A11D0240A1267
:1009B0008A118000840A04087D0603190034FF0AA6
:1009C0000319FE0AD42CF0006400831603178C1858
:1009D000EA2CEB2CE42C7008831203178D003F30B7
:1009E000FF007F08831603178C050C14831203176E
:1009F0000C080800F501F601711CFF2C002D062DD6
:100A00007308F5070318F60A7408F6070130031097
:100A1000F30DF40DFF3E031D072D01300310F20C02
:100A2000F10CFF3E031D0E2D71087204031D192DDC
:100A30001A2DFC2C7608F2007508F1000800F10070
:100A40007108031D242D252D2A2D8312031306085A
:100A50003F39482D3F30831203130605F0003F3025
:100A600070060319342D352D3C2D46080319392DF8
:100A70003A2D3C2DC601252D3F300605F0003F30B4
:100A80007006031D442D452D472DC601C60A3F3073
:100A90000800FD00831603178C184F2D502D4A2D8A
:100AA0007D08831203178D007C088C003F30FF0007
:100AB0007F08831603178C058312031303108B1F03
:100AC000622D632D642D03148B13831603170C15ED
:100AD00055308D00AA308D008C140C118312031335
:100AE000031C732D742D752D8B170800F300F40172
:100AF00074087307F00070088400831300088312E1
:100B0000031388000430F000740A882D0310F00DE0
:100B1000FF3E031D862D0508C33970048500903003
:100B2000F1000130F2000130F1020030031CF20349
:100B3000F202710A031DA02D720A031DA02DA12D22
:100B4000932D0130FF007F08F40704307402031C6A
:100B5000AA2DAB2D782D0800770878040319B12D44
:100B6000B22DE12DFB01FB0AC02D01300310F70D62
:100B7000F80DFF3E031DB62D0130FF007F08FB0777
:100B8000F81FC32DC42DB52D78087A02031DCA2D78
:100B900077087902031CCD2DCE2DD42D7708F902CC
:100BA0007808031CFA03FA0201300310F80CF70C62
:100BB000FF3E031DD52D0130FB02031DE02DE12D6D
:100BC000C42D7A08F8007908F7000800F401F5014F
:100BD000700871040319ED2DEE2D252EF601F60A8D
:100BE000FC2D01300310F00DF10DFF3E031DF22D21
:100BF0000130FF007F08F607F11FFF2D002EF12DB9
:100C000001300310F40DF50DFF3E031D012E710898
:100C10007302031D0D2E70087202031C102E112E7C
:100C2000182E7008F2027108031CF303F302741407
:100C300001300310F10CF00CFF3E031D192E0130A2
:100C4000F602031D242E252E002E7508F1007408CF
:100C5000F0000800E830F0000330F10083120313C5
:100C60002108F3002008F2000A128A11E6250A1270
:100C70008A117008FC0000300A128A1149250A12F4
:100C80008A110A30F7000030F8006430F0000030BC
:100C9000F100831203132108F3002008F2000A1266
:100CA0008A11E6250A128A117108FA007008F90003
:100CB0000A128A11AC250A128A117708FC00013049
:100CC0000A128A1149250A128A110A30F7000030E7
:100CD000F8000A30F0000030F100831203132108FD
:100CE000F3002008F2000A128A11E6250A128A117E
:100CF0007108FA007008F9000A128A11AC250A126C
:100D00008A117708FC0002300A128A1149250A125A
:100D10008A110A30F7000030F8008312031321080B
:100D2000FA002008F9000A128A11AC250A128A1169
:100D30007708FC0003300A128A1149250A128A1129
:100D400008000A128A11AE240A128A112E30840079
:100D50003C3083120313A2000408A3000A30A4004D
:100D60002208840083130008A500A20A2308840037
:100D700025088000A30AA40BB02E01300A128A11A4
:100D80001F250A128A1183120313CD003D304D0630
:100D9000031DCB2ECC2ED52E4C08A1004B08A00055
:100DA0000A128A112A260A128A11013083120313A9
:100DB000C7070318C80A0030C8074C304706480464
:100DC000031DE32EE42EDE2FC701C80149084A04A3
:100DD000031DEB2EEC2E5F2F00300A128A11E32444
:100DE0000A128A1183120313A200A3012208F10040
:100DF0002308F200E830F3000330F4000A128A11ED
:100E0000FA240A128A11710883120313A4007208CB
:100E1000A50001300A128A11E3240A128A118312F2
:100E20000313A600A7012608F1002708F20064308A
:100E3000F3000030F4000A128A11FA240A128A110F
:100E40007108831203132407A80072080318720A9A
:100E50002507A90002300A128A11E3240A128A1116
:100E600083120313AA00AB012A08F1002B08F20039
:100E70000A30F3000030F4000A128A11FA240A1230
:100E80008A117108831203132807AC007208031833
:100E9000720A2907AD0003300A128A11E3240A12EC
:100EA0008A11831203132C07CB0000300318013082
:100EB0002D07CC000130C9000030CA00652F013079
:100EC000CB070318CC0A0030CC0727304C02103077
:100ED00003194B02031C6D2F6E2F702FCB01CC0119
:100EE0000A30F7000030F8004C08FA004B08F9000F
:100EF0000A128A11AC250A128A1177082E3E840044
:100F00008313000883120313BB000A30F70000307C
:100F1000F8000A30F0000030F1004C08F3004B08F4
:100F2000F2000A128A11E6250A128A117108FA00E3
:100F30007008F9000A128A11AC250A128A11770882
:100F40002E3E84008313000883120313BA000A3074
:100F5000F7000030F8006430F0000030F1004C0879
:100F6000F3004B08F2000A128A11E6250A128A11D0
:100F70007108FA007008F9000A128A11AC250A12E9
:100F80008A1177082E3E840083130008831203130E
:100F9000B900E830F0000330F1004C08F3004B08D2
:100FA000F2000A128A11E6250A128A1170082E3EF2
:100FB00084008313000883120313B80038300A1228
:100FC0008A1176250A128A11BD2E0A128A1100286A
:100FD00083134730FD000430FE00B930FF003C3081
:100FE00084000A128A11D4240A128A11C701C80186
:100FF000C901CA01CB01CC0183010A128A11A12EB9
:02400E00FB3F76
:00000001FF
