:020000040000FA
:060000000A128A110C280F
:10000800FE00030EF6000A08F7000A128A111928E2
:100018000A128A110F28F001F101F201F301F4012B
:10002800F50183010A128A11AC280B1D1C281D2812
:100038003628831203130108083E81000130F407B3
:100048000318F50A0030F507103074062730031935
:100058007506031D302831283528F401F5010130D3
:1000680086060B11831203130C1C3B283C284E28D0
:100078000130F2070318F30A0030F307283072063C
:100088007304031D482849284D28F201F301023062
:1000980086060C108C1C5128522866280130F0075F
:1000A8000318F10A0030F1071030700627300319E1
:1000B8007106031D602861286528F001F1010430EC
:1000C80086068C1077088A00760E8300FE0E7E0E58
:1000D80009008312031386018316031386010A128B
:1000E8008A11A1200A128A110A128A1193200A126F
:1000F8008A110A128A1183200A128A1108008312AF
:100108000313121092109101FA3083160313920010
:100118008C148312031312150B178B170800831204
:100128000313900110140B308F00DC308E008316FF
:1001380003130C140B178B17080083160313811273
:10014800811506308312031381008B168B17080064
:100158000A128A116D200A128A11B1280A128A110C
:020168000C2861
:02400E00FB3F76
:00000001FF
