:020000040000FA
:060000000A128A11E72F2D
:100664008316031306083F38860008000A128A110D
:100674006C230A128A1183160313111408000A1238
:100684008A116C230A128A118316031311150800A8
:100694000A128A1141230A128A110A128A11382372
:1006A4000A128A110800F0000A128A116C230A1235
:1006B4008A1170088312031393000800831603132E
:1006C40088010508C3398500831203130508C3395B
:1006D40085000800831603131419712B722B6C2BDD
:1006E40011081F39031D772B782B6C2B08003F341E
:1006F40006345B344F3466346D347D3407347F34D0
:100704006F3401343F343F347E088A007F0882000E
:100714000A128A1186230A128A118000840A0408A4
:100724007D0603190034FF0A0319FE0A8A2B0030E0
:100734000A128A115B240A128A1183120313A0007D
:1007440020087F39A0002008FC0000300A128A111A
:10075400AE230A128A110800FD000A128A113823F6
:100764000A128A11A0300A128A1155230A128A1118
:100774007D080A128A1155230A128A117C080A126A
:100784008A1155230A128A110A128A1141230A1264
:100794008A1108000A128A1132230A128A110A12D3
:1007A4008A1160230A128A11003083120313A300F2
:1007B4000130A2008630A100A030A0000A128A11E4
:1007C40086240A128A110A128A1199230A128A119A
:1007D4000800F0000A128A116C230A128A11831687
:1007E400031391150A128A116C230A128A118312B7
:1007F40003131308F1007003031D012C022C062CB3
:10080400831603139116092C8316031391121116E0
:1008140071080800F801F901741C112C122C182C11
:100824007608F8070318F90A7708F9070130031066
:10083400F60DF70DFF3E031D192C01300310F50CC6
:10084400F40CFF3E031D202C74087504031D2B2C8F
:100854002C2C0E2C7908F5007808F4000800F1001F
:100864007108031D362C372C3C2C83120313060805
:100874003F395A2C3F30831203130605F0003F30F2
:1008840070060319462C472C4E2C4C0803194B2C8C
:100894004C2C4E2CCC01372C3F300605F0003F3059
:1008A4007006031D562C572C592CCC01CC0A3F3012
:1008B4000800F2000A128A1138230A128A11A030A1
:1008C4000A128A1155230A128A1172080A128A110D
:1008D40055230A128A110A128A114A230A128A110A
:1008E400A1300A128A1155230A128A1100300A1201
:1008F4008A11EB230A128A11F3000A128A11412386
:100904000A128A117308080083120313941520082D
:10091400A4002108A5002208A6002308A70002308D
:100924000310A40DA50DA60DA70DFF3E031D922CCB
:100934002708F3002608F2002508F1002408F00037
:100944000130F7003130F6002D30F5000030F400AE
:100954000A128A116C250A128A117008FF3E831646
:10096400031393008312031394160800F300F40195
:1009740074087307F000700884008313000883125E
:10098400031388000430F000740ACA2C0310F00D1D
:10099400FF3E031DC82C0508C33970048500903040
:1009A400F1000130F2000130F1020030031CF203C7
:1009B400F202710A031DE22C720A031DE22CE32CDD
:1009C400D52C0130FF007F08F40704307402031CA7
:1009D400EC2CED2CBA2C0800770878040319F32CBE
:1009E400F42C232DFB01FB0A022D01300310F70D1B
:1009F400F80DFF3E031DF82C0130FF007F08FB07B4
:100A0400F81F052D062DF72C78087A02031D0C2DEE
:100A140077087902031C0F2D102D162D7708F90283
:100A24007808031CFA03FA0201300310F80CF70CDF
:100A3400FF3E031D172D0130FB02031D222D232D24
:100A4400062D7A08F8007908F7000800F401F5018A
:100A54007008710403192F2D302D672DF601F60A45
:100A64003E2D01300310F00DF10DFF3E031D342D1A
:100A74000130FF007F08F607F11F412D422D332D71
:100A840001300310F40DF50DFF3E031D432D7108D5
:100A94007302031D4F2D70087202031C522D532D37
:100AA4005A2D7008F2027108031CF303F302741444
:100AB40001300310F10CF00CFF3E031D5B2D0130DF
:100AC400F602031D662D672D422D7508F10074088A
:100AD400F00008000030FC000030FB000030FA0099
:100AE4000030F900730872047104700403197B2D3B
:100AF4007C2DC92DFD01FD0A8C2D0130F800031059
:100B0400F00DF10DF20DF30DF80B812D0130FF0006
:100B14007F08FD07F31F8F2D902D7F2D0130F800E6
:100B24000310F90DFA0DFB0DFC0DF80B922D730853
:100B34007702031DA72D72087602031DA72D7108E5
:100B44007502031DA72D70087402031CAA2DAB2D7A
:100B5400BA2D7008F4027108031C710FF5027208B3
:100B6400031C720FF6027308031C730FF702791447
:100B740001300310F30CF20CF10CF00CFF3E031DDA
:100B8400BB2D0130FD02031DC82DC92D902D7C08FD
:100B9400F3007B08F2007A08F1007908F0000800FD
:100BA400E830F0000330F100831203132108F3004E
:100BB4002008F2000A128A1128250A128A117008E4
:100BC400FC0000300A128A11AE230A128A110A307C
:100BD400F7000030F8006430F0000030F1008312B8
:100BE40003132108F3002008F2000A128A112825B1
:100BF4000A128A117108FA007008F9000A128A119F
:100C0400EE240A128A117708FC0001300A128A11B4
:100C1400AE230A128A110A30F7000030F8000A30B5
:100C2400F0000030F100831203132108F3002008C0
:100C3400F2000A128A1128250A128A117108FA0090
:100C44007008F9000A128A11EE240A128A11770830
:100C5400FC0002300A128A11AE230A128A110A30E9
:100C6400F7000030F800831203132108FA0020086B
:100C7400F9000A128A11EE240A128A117708FC007C
:100C840003300A128A11AE230A128A1108000A12CA
:100C94008A11CC230A128A11343084004230831220
:100CA4000313A8000408A9000A30AA002808840035
:100CB40083130008AB00A80A290884002B088000CD
:100CC400A90AAA0B582E00300A128A1131240A12DA
:100CD4008A1183120313D50001300A128A113124B8
:100CE4000A128A1183120313D40055084E060319FD
:100CF4007C2E7D2E992E3E305506031D822E832E8A
:100D04008A2E3F304E06031D882E892E8A2ED3014B
:100D14003F305506031D8F2E902E972E3E304E06E3
:100D2400031D952E962E972ED3015508CE005408F8
:100D34004D0603199E2E9F2EBB2E3E305406031DD6
:100D4400A42EA52EAC2E3F304D06031DAA2EAB2E8D
:100D5400AC2ED3013F305406031DB12EB22EB92E52
:100D64003E304D06031DB72EB82EB92ED3015408BC
:100D7400CD003E304E06031DC02EC12ECD2E0130B7
:100D8400FF007F08D30765305302031CCA2ECB2E05
:100D9400CD2ED101D2013E304D06031DD22ED32ECD
:100DA400DB2E5108013ED10052080318013E003EDB
:100DB400D2003D305506031DE02EE12EEA2E5208E6
:100DC400A1005108A0000A128A11D2250A128A1120
:100DD4002730831203135202113003195102031CEA
:100DE400F42EF52EF72ED101D2014F085004031D25
:100DF400FC2EFD2E6F2F00300A128A115B240A127A
:100E04008A1183120313A800A9012808F4002908F1
:100E1400F500E830F6000330F7000A128A110C24BA
:100E24000A128A11740883120313AA007508AB000E
:100E340001300A128A115B240A128A1183120313E5
:100E4400AC00AD012C08F4002D08F5006430F60068
:100E54000030F7000A128A110C240A128A1174084D
:100E6400831203132A07AE0075080318750A2B07AB
:100E7400AF0002300A128A115B240A128A1183120B
:100E84000313B000B1013008F4003108F5000A3052
:100E9400F6000030F7000A128A110C240A128A1193
:100EA4007408831203132E07B20075080318750A19
:100EB4002F07B30003300A128A115B240A128A1125
:100EC400831203133207D1000030031801303307B3
:100ED400D2000130CF000030D0000A30F7000030DB
:100EE400F8005208FA005108F9000A128A11EE2497
:100EF4000A128A117708343E84008313000883128F
:100F04000313C1000A30F7000030F8000A30F00083
:100F14000030F1005208F3005108F2000A128A115D
:100F240028250A128A117108FA007008F9000A12B9
:100F34008A11EE240A128A117708343E840083133E
:100F4400000883120313C0000A30F7000030F800D1
:100F54006430F0000030F1005208F3005108F20050
:100F64000A128A1128250A128A117108FA007008D7
:100F7400F9000A128A11EE240A128A117708343E03
:100F840084008313000883120313BF00E830F000C9
:100F94000330F1005208F3005108F2000A128A11DA
:100FA40028250A128A117008343E8400831300082D
:100FB40083120313BE003E300A128A11B8240A12A7
:100FC4008A11652E0A128A11002883134F30FD00FE
:100FD4000330FE007930FF00423084000A128A1187
:100FE4008A230A128A11CF01D001D101D201D3017F
:0C0FF400D401D50183010A128A11492E94
:02400E00FB3F76
:00000001FF
