:020000040000FA
:060000000A128A11F82F1C
:10083000831603139F17831203131F1408008312D8
:10084000031388018316031388010A128A111824DE
:100850000A128A1108000A128A111F240A128A1128
:1008600002300A128A1149240A128A11710883126D
:100870000313C9007008C8004908C7004808C6002B
:100880000A128A1168240A128A11302C0A128A115B
:100890000028F5007508F20003300310F20DFF3E4A
:1008A000031D4D2C831203131F08C73972049F00C8
:1008B0001F151F195C2C5D2C592C1E08F400831683
:1008C00003131E08F3007408F1007308F000080019
:1008D000413083120313A3002330A200AE30A100E5
:1008E0001430A0004608F0004708F100F201F301BF
:1008F00000300A128A1171250A128A1173088312B4
:100900000313A7007208A6007108A5007008A400D0
:100910000A128A1129260A128A1183120313230844
:10092000BD002208BC002108BB002008BA004A080C
:10093000F0004B08F100F201F30100300A128A11B5
:1009400071250A128A11730883120313C1007208F9
:10095000C0007108BF007008BE000A128A11CD24C1
:100960000A128A11031CB52CB62CBA2C831203135D
:100970000814BD2C83120313081064304A064B047C
:10098000031DC32CC42CC62CCA01CB010130CA07DD
:100990000318CB0A0030CB07080000308312031382
:1009A0003A05C20000303B05C30080303C05C4005E
:1009B0007F303D05C5004508440443044204031D3F
:1009C000E22CE32CEB2C0030BD000030BC000030EA
:1009D000BB000030BA0000303E05C20000303F05C9
:1009E000C30080304005C4007F304105C500450884
:1009F000440443044204031DFE2CFF2C072D003049
:100A0000C1000030C0000030BF000030BE00BD1F7C
:100A10000A2D0B2D2F2D0030C2000030C3000030F6
:100A2000C4008030C5003A08C2023B08031C3B0FDB
:100A30001A2D1B2DC3023C08031C3C0F202D212D19
:100A4000C4023D08031C3D0F262D272DC502450875
:100A5000BD004408BC004308BB004208BA00C11FE7
:100A6000322D332D572D0030C2000030C30000302E
:100A7000C4008030C5003E08C2023F08031C3F0F7F
:100A8000422D432DC3024008031C400F482D492D21
:100A9000C4024108031C410F4E2D4F2DC5024508CD
:100AA000C1004408C0004308BF004208BE008030B7
:100AB000BD068030C10641083D02031D692D400876
:100AC0003C02031D692D3F083B02031D692D3E08B2
:100AD0003A0203186C2D6D2D6F2D0310702D031429
:100AE0000800F80078080319762D772D8B2DF31F59
:100AF0007A2D7B2D8B2D7009FA007109FB0072098C
:100B0000FC007309FD00FA0A0319FB0A0319FC0A29
:100B10000319FD0A932D7308FD007208FC0071088B
:100B2000FB007008FA007308720471047004031D5E
:100B30009A2D9B2DA42D0030F3000030F2000030E0
:100B4000F1000030F000282E9630F900B42D01306D
:100B5000FF007F08F90701300310FD0CFC0CFB0CB3
:100B6000FA0CFF3E031DAC2DFE307D05031DB92D93
:100B7000BA2DA72DD62D0130FF007F08F9070130CF
:100B8000FA07003003180130FB070030031801306A
:100B9000FC07003003180130FD0701300310FD0C85
:100BA000FC0CFB0CFA0CFF3E031DCE2DFF307D0527
:100BB000031DDB2DDC2DBB2DE82D0130F9020130AA
:100BC000F4000310FA0DFB0DFC0DFD0DF40BE12DEF
:100BD000FC1BEB2DEC2DF22D023079020318F12DC8
:100BE000F22DDD2D7918F52DF62DFE2DFF30FA05AD
:100BF000FF30FB057F30FC05FF30FD050310F90CCD
:100C00007908F400F501F601F70118300310F40D2E
:100C1000F50DF60DF70DFF3E031D062E7408FA04C0
:100C20007508FB047608FC047708FD0478080319AE
:100C30001A2E1B2E202EF31F1E2E1F2E202EFD17C8
:100C40007D08F3007C08F2007B08F1007A08F000D0
:100C500008008312031327088039B1002708A80071
:100C60002807B800A61F352E362E372E3814380820
:100C700003193B2E3C2E4C2E380A031D402E412ECC
:100C8000492E0030A7000030A6000030A50000303B
:100C9000A400A617A701542E0030A7000030A6001C
:100CA0000030A5000030A40023088039FF007F0831
:100CB000B1062308A8002807B900A21F602E612EE4
:100CC000622E391439080319662E672E772E390AD9
:100CD000031D6B2E6C2E742E0030A3000030A2007A
:100CE0000030A1000030A000A217A3017F2E003029
:100CF000A3000030A2000030A1000030A0002308B3
:100D0000220421042004031D862E872EA02E0030ED
:100D1000A7000030A6000030A5000030A4008030FD
:100D2000A6047F30A7043108FF007F08A704270826
:100D3000A3002608A2002508A1002408A000F72F80
:100D40003808031DA42EA52EAE2E0030A3000030BF
:100D5000A2000030A1000030A000F72F3808A80042
:100D6000A9012908AB0039082802AA00031CAB031B
:100D70002A087F3EB2002B080318013E003EB30054
:100D80002708B0002608AF002508AE002408AD00F3
:100D90000030A7000030A6000030A5000030A400FD
:100DA0000030B7000030B6000030B5000030B400AD
:100DB000B901242F39080319DE2EDF2EFF2E013052
:100DC000A8000310AD0DAE0DAF0DB00DA80BE12EB8
:100DD0000130A8000310A40DA50DA60DA70DA80BAA
:100DE000EA2EB71FF42EF52EF62E24140130A8009B
:100DF0000310B40DB50DB60DB70DA80BF82E2308D2
:100E00003002031D0D2F22082F02031D0D2F210874
:100E10002E02031D0D2F20082D02031C102F112F51
:100E2000202F37172008AD022108031C210FAE0226
:100E30002208031C220FAF022308031C230FB00259
:100E40000130FF007F08B9071A303902031C292F2F
:100E50002A2FDA2E30082F042E042D040319312FE7
:100E6000322F512F3414512F0130A8000310A40D3C
:100E7000A50DA60DA70DA80B362FB71F402F412F8C
:100E8000422F24140130A8000310B40DB50DB60D87
:100E9000B70DA80B442FFF30B2070318B30AFF3079
:100EA000B307A61F542F552F342FB901B71F592F41
:100EB0005A2F762FFF303405A800FF303505A900E2
:100EC000FF303605AA007F303705AB002B082A0417
:100ED0002904280403196D2F6E2F712FB901B90A47
:100EE000762F241C742F752F762F6E2F3908031937
:100EF0007A2F7B2FAC2F0130A4070030031801306C
:100F0000A507003003180130A60700300318013090
:100F1000A707271C8C2F8D2FAC2F2408A80025088D
:100F2000A9002608AA002708AB000130AC002B0D51
:100F3000AB0CAA0CA90CA80CAC0B972F2B08A70084
:100F40002A08A6002908A5002808A4000130B20735
:100F50000318B30A0030B3073308803AFF0080302B
:100F60007F02031DB52FFF303202031CB82FB92FAB
:100F7000C72FFF3083120313B2000030B3000030DC
:100F8000A7000030A6000030A5000030A4008312A6
:100F900003133308803AFF0080307F02031DD22FF5
:100FA000013032020318D52FD62FE32F83120313FB
:100FB000B201B3010030A7000030A6000030A50048
:100FC0000030A400B101831203133208B800381CAA
:100FD000EA2FEB2FED2FA617F12F7F30FF007F08B0
:100FE000A6053808A8000310280CA700932E0800B7
:100FF00083120313CA01CB0183010A128A112B2C1D
:02400E00FB3F76
:00000001FF
