:020000040000FA
:060000000A128A110C280F
:10000800FE00030EF0000A08F1000A128A112428E3
:100018000A128A110F2883010A128A114328013013
:1000280083120313900006309700043083160313DD
:100038008C00C0308B0083120313950196010800D1
:10004800831203130C1D29282A282D280C110609B0
:10005800860071088A00700E8300FE0E7E0E09006D
:100068008312031387018601043083160313870064
:1000780086010A128A1113200A128A1108000A122C
:100088008A1134200A128A1148280A128A110C2867
:02400E00FB3F76
:00000001FF
