:020000040000FA
:060000000A128A11DC2F38
:100B66008316031306083F38860008000A128A1106
:100B7600C4250A128A110A128A11B3250A128A1189
:100B860008008316031388010508033985008312BC
:100B9600031305080339850008003F3406345B3427
:100BA6004F3466346D347D3407347F346F3400340B
:100BB6003F3401347E088A007F0882000A128A11B7
:100BC600DD250A128A118000840A04087D060319AD
:100BD6000034FF0A0319FE0AE12D083400340834F4
:100BE600003407340034003400340434003405344F
:100BF600003401340034043400340734003408343B
:100C060000340A3400340A340034F1007108031D3C
:100C16000D2E0E2E132E8312031306083F39312E86
:100C26003F30831203130605F0003F3070060319A8
:100C36001D2E1E2E252E54080319222E232E252E58
:100C4600D4010E2E3F300605F0003F307006031D1E
:100C56002D2E2E2E302ED401D40A3F300800F80057
:100C6600F90179087807F0007008840083130008FA
:100C76008312031388000430F000790A442E03100F
:100C8600F00DFF3E031D422E050803397004850052
:100C96000030F7000030F6000130F5009030F40027
:100CA6000130F0000030F1000030F2000030F300B7
:100CB6007008F4027108031C710F622E632EF50290
:100CC6007208031C720F682E692EF6027308031C45
:100CD600730F6E2E6F2EF702740A031D7C2E750A93
:100CE600031D7C2E760A031D7C2E770A031D7C2E9F
:100CF6007D2E532E0130FF007F08F907043079025C
:100D0600031C862E872E342E08000A128A11B92556
:100D16000A128A1183120313C601C701A601A7018D
:100D260028308400A030FA000408FB001830FC00CC
:100D36007A08840083130008FD00FA0A7B08840001
:100D46007D088000FB0AFC0B9B2E831203134608CA
:100D56004704031DAF2EB02EC92E0130C600003049
:100D6600C7002808483E840083130008D6002A08D6
:100D7600483E84000008D7002C08483E840000083E
:100D8600D8002E08483E84000008D90001300A1217
:100D96008A1108260A128A1183120313D5003F30DE
:100DA60055060319D72ED82EDA2E5508D300013052
:100DB600A6070318A70A0030A7074C302606270403
:100DC600031DE62EE72ED22FA601A70146034704F0
:100DD600031DEE2EEF2E442F3F305306031DF42E37
:100DE600F52E442F2908A1002808A0000130C000D4
:100DF6000030C100831203134008FA007A07283E28
:100E0600840083130008FB00840A0008FC004008E5
:100E1600FD007D07FE3E283E84007B088000840A94
:100E26007C0880000130C0070318C10A0030C107E2
:100E36004108803AFF0080307F02031D242F0C30CA
:100E46004002031C272F282FFD2E8312031321088F
:100E5600BF002008BE002808483E8400831300080F
:100E6600D6002A08483E84000008D7002C08483ED1
:100E760084000008D8002E08483E84000008D900E7
:100E8600D22F46034704031D492F4A2F8A2F3E308F
:100E96005306031D4F2F502F8A2F3F08A3003E08ED
:100EA600A2000B30C2000030C300831203134208B5
:100EB600FA007A07FE3E283E840083130008FB00F2
:100EC600840A0008FC004208FD007D07283E8400D5
:100ED6007B088000840A7C088000FF30C207031864
:100EE600C30AFF30C3074308803AFF0080307F0201
:100EF600031D7F2F013042020318822F832F582FA4
:100F0600831203132308A9002208A8002E2F4603E4
:100F16004704031D8F2F902FD02F3D305306031DFE
:100F2600952F962FD02F2908A5002808A400013058
:100F3600C4000030C500831203134408FA007A0780
:100F4600283E840083130008FB00840A0008FC0086
:100F56004408FD007D07FE3E283E84007B08800095
:100F6600840A7C0880000130C4070318C50A0030D3
:100F7600C5074508803AFF0080307F02031DC52F54
:100F86000C304402031CC82FC92F9E2F8312031353
:100F96002508BF002408BE002E2FC601C701563003
:100FA6000A128A1132260A128A11A82E0A128A11E8
:100FB60000288313B830FD000530FE00F030FF0036
:100FC600A03084000A128A11E1250A128A115530CE
:100FD600FD000530FE00D030FF00483084000A12C4
:100FE6008A11E1250A128A11D501D601D701D80145
:0A0FF600D90183010A128A11882E26
:02400E00FB3F76
:00000001FF
