:020000040000FA
:060000000A128A11E42F30
:100B480001348316031306083F38860008000A128A
:100B58008A11B6250A128A110A128A11A5250A12C3
:100B68008A110800831603138801050803398500D4
:100B78008312031305080339850008003F3406343F
:100B88005B344F3466346D347D3407347F346F34CE
:100B98003F343F347E088A007F0882000A128A1197
:100BA800CE250A128A118000840A04087D060319DA
:100BB8000034FF0A0319FE0AD22DF1007108031D43
:100BC800E62DE72DEC2D8312031306083F390A2E74
:100BD8003F30831203130605F0003F3070060319F7
:100BE800F62DF72DFE2D7C080319FB2DFC2DFE2D6F
:100BF800FC01E72D3F300605F0003F307006031D6D
:100C0800062E072E092EFC01FC0A3F30080070084A
:100C180071040319102E112E402EF401F40A1F2E10
:100C280001300310F00DF10DFF3E031D152E0130AC
:100C3800FF007F08F407F11F222E232E142E7108BF
:100C48007302031D292E70087202031C2C2E2D2EF0
:100C5800332E7008F2027108031CF303F30201300B
:100C68000310F10CF00CFF3E031D342E0130F4028A
:100C7800031D3F2E402E232E7308F1007208F0004A
:100C88000800F901FA017508760403194C2E4D2E57
:100C9800842EFB01FB0A5B2E01300310F50DF60DC7
:100CA800FF3E031D512E0130FF007F08FB07F61F92
:100CB8005E2E5F2E502E01300310F90DFA0DFF3E07
:100CC800031D602E76087802031D6C2E75087702C6
:100CD800031C6F2E702E772E7508F7027608031CFA
:100CE800F803F802791401300310F60CF50CFF3EF6
:100CF800031D782E0130FB02031D832E842E5F2EE8
:100D08007A08F6007908F5000800F800F901790872
:100D18007807F00070088400831300088312031317
:100D280088000430F000790A9B2E0310F00DFF3E76
:100D3800031D992E05080339700485000030F7005B
:100D48000030F6000130F5009030F4000130F0007A
:100D58000030F1000030F2000030F3007008F402B7
:100D68007108031C710FB92EBA2EF5027208031C04
:100D7800720FBF2EC02EF6027308031C730FC52E08
:100D8800C62EF702740A031DD32E750A031DD32E2F
:100D9800760A031DD32E770A031DD32ED42EAA2E2E
:100DA8000130FF007F08F90704307902031CDD2EAB
:100DB800DE2E8B2E08000A128A11AB250A128A1120
:100DC80000300A128A11E1250A128A1183120313CC
:100DD800B00001300A128A11E1250A128A11831221
:100DE8000313B10030082B060319FB2EFC2E1A2F13
:100DF8003E303006031D012F022F0A2F3F302B06ED
:100E0800031D072F082F0A2FB201B3013F30300608
:100E1800031D0F2F102F182F3E302B06031D152FE3
:100E2800162F182FB201B3013008AB0031082A067B
:100E380003191F2F202F3E2F3E303106031D252F6B
:100E4800262F2E2F3F302A06031D2B2F2C2F2E2F17
:100E5800B201B3013F303106031D332F342F3C2F2D
:100E68003E302A06031D392F3A2F3C2FB201B30119
:100E78003108AA003E302B06031D432F442F552F5F
:100E88000130B2070318B30A0030B3070030330249
:100E9800653003193202031C522F532F552FB4010A
:100EA800B5013E302A06031D5A2F5B2F612F0130F2
:100EB800B4070318B50A0030B507273035021030DB
:100EC80003193402031C692F6A2F6C2FB401B50172
:100ED800E830F5000330F6003508F8003408F7006C
:100EE8000A128A1145260A128A117508203E8400C2
:100EF8008313000883120313AC006430F50000303C
:100F0800F6003508F3003408F200E830F00003304A
:100F1800F1000A128A110B260A128A117108F800C8
:100F28007008F7000A128A1145260A128A117508F4
:100F3800203E84008313000883120313AD000A3097
:100F4800F5000030F6003508F3003408F20064308C
:100F5800F0000030F1000A128A110B260A128A11D9
:100F68007108F8007008F7000A128A1145260A125B
:100F78008A117508203E8400831300088312031326
:100F8800AE000A30F0000030F1003508F3003408F4
:100F9800F2000A128A110B260A128A117008203EE2
:100FA80084008313000883120313AF002C300A1245
:100FB8008A1189260A128A11E42E0A128A11002837
:100FC80083132C30FD000530FE00C230FF002030B6
:100FD80084000A128A11D2250A128A110A128A1169
:100FE800A4250A128A11FC00B201B301B401B501AB
:080FF80083010A128A11DF2EA9
:02400E00FB3F76
:00000001FF
