:020000040000FA
:060000000A128A11F02F24
:100DC00001348316031306083F3886000800831297
:100DD000031388018316031388010A128A11E1267E
:100DE0000A128A1108000A128A11E7260A128A11C9
:100DF00001300A128A1111270A128A11F9003F30B4
:100E000079060319042F052F072F7908F8007808B1
:100E10000A128A113B270A128A11F82E0A128A1125
:100E20000028F7007708031D162F172F1C2F831299
:100E3000031306083F393A2F3F3083120313060588
:100E4000F6003F3076060319262F272F2E2F7A081B
:100E500003192B2F2C2F2E2FFA01172F3F300605A9
:100E6000F6003F307606031D362F372F392FFA0153
:100E7000FA0A3F300800F7000130F007003003188D
:100E80000130F107003003180130F2070030031879
:100E90000130F30711307006273003197106720410
:100EA0007304031D542F552FEF2F0030F300003033
:100EB000F2000030F1000030F0003E307706031DF4
:100EC000622F632FA52F00307502083003197402BA
:100ED00003186B2F6C2F812F0130F600740A722FCC
:100EE0000310F60DFF3E031D702F760883120313C7
:100EF000080488000130F4070318F50A0030F507EC
:100F00009C2F003075021030031974020318892FCA
:100F10008A2F9C2F0130F6007408F83E013E922F74
:100F20000310F60DFF3E031D902F7608FF3A831243
:100F30000313080588007A2F103074067504031D0A
:100F4000A22FA32FA52FF401F5013D307706031D35
:100F5000AA2FAB2FEF2F003075020830031974024F
:100F60000318B32FB42FCB2F0130F6007408073CC1
:100F7000013EBC2F0310F60DFF3E031DBA2F76086D
:100F800083120313080488000130F4070318F50ADC
:100F90000030F507E62F0030750210300319740297
:100FA0000318D32FD42FE62F0130F60074080F3C1E
:100FB000013EDC2F0310F60DFF3E031DDA2F7608ED
:100FC000FF3A8312031308058800C42F10307406FB
:100FD0007504031DEC2FED2FEF2FF401F501080030
:100FE0000A128A11E0260A128A11FA00F001F101B0
:100FF000F201F301F401F50183010A128A11F32EC3
:02400E00FB3F76
:00000001FF
