:020000040000FA
:060000000A128A110C280F
:10000800FE00030EF6000A08F7000A128A11672894
:100018000A128A110F280A128A11F6200A128A1166
:10002800FB000A128A11F7200A128A11FC000A1230
:100038008A11F8200A128A11FD00F001F101F2017B
:10004800F301F401F50183010A128A11BE28F800B0
:100058000130F2070318F30A0030F307F430720690
:10006800031D3A287303031D3A283B286628F2012A
:10007800F3013E307806031D4228432853280030F8
:100088007C02643003197B0203184B284C2866282D
:100098000130FB070318FC0A0030FC0766283D30D6
:1000A8007806031D5828592866287B087C040319FC
:1000B8005E285F2866280130FB020030031CFC0321
:1000C800FC02662808000B1D6A286B288D288312FD
:1000D80003130108083E810071087C02031D76287D
:1000E80070087B02031C79287A287C2808147D284C
:1000F80008100130F0070318F10A0030F1076430E6
:1001080070067104031D89288A288C28F001F101E2
:100118000B1177088A00760E8300FE0E7E0E09000A
:10012800F9007908031D99289A289F288312031338
:1001380006083F39BD283F30831203130605F8002F
:100148003F3078060319A928AA28B1287D08031981
:10015800AE28AF28B128FD019A283F300605F800DF
:100168003F307806031DB928BA28BC28FD01FD0ACE
:100178003F3008000A128A11D4200A128A1100306E
:100188000A128A1194200A128A11FA007A080A12AD
:100198008A112B200A128A11C3280A128A110C28E4
:1001A8008312031388018316031388010A128A1124
:1001B800F0200A128A110A128A11E5200A128A11FD
:1001C8000800831603138112811506308312031366
:1001D80081008B168B1708008316031306083F3817
:0A01E80086000800323400340134B0
:02400E00FB3F76
:00000001FF
