:020000040000FA
:060000000A128A11FC2F18
:100E18008312031386018316031386010800F20167
:100E2800F3012D2FF401F5010130F4070318F50A39
:100E38000030F50703307502E83003197402031C0B
:100E4800262F272F182F0130F2070318F30A003036
:100E5800F30771087302031D332F70087202031C15
:100E6800362F372F162F08000A128A110C270A125C
:100E78008A1183120313A0012008031D442F452F54
:100E8800A82FA101A2010130F60083120313210A41
:100E98004F2F0310F60DFF3E031D4D2F7608060455
:100EA8008600FA30F0000030F1000A128A11132788
:100EB8000A128A11013083120313A1070318A20A28
:100EC8000030A2072208803AFF0080307F02031D0D
:100ED8006F2F08302102031C722F732F472F8312A4
:100EE8000313A301A4010130F60083120313230A9C
:100EF8007F2F0310F60DFF3E031D7D2F7608FF3A66
:100F080006058600FA30F0000030F1000A128A1156
:100F180013270A128A11013083120313A307031837
:100F2800A40A0030A4072408803AFF0080307F021A
:100F3800031DA02F08302302031CA32FA42F772FF3
:100F480083120313A001A00A2003031DAC2FAD2FA9
:100F5800402F0730A5000030A6000130F600250A12
:100F6800B72F0310F60DFF3E031DB52F76080604B4
:100F78008600FA30F0000030F1000A128A111327B7
:100F88000A128A11FF3083120313A5070318A60A51
:100F9800FF30A607A61FD12FD22FB12F0730A700E9
:100FA8000030A8000130F600270ADC2F0310F60DE8
:100FB800FF3E031DDA2F7608FF3A06058600FA3051
:100FC800F0000030F1000A128A1113270A128A1160
:100FD800FF3083120313A7070318A80AFF30A807D6
:100FE800A81FF72FF82FD62F3D2F0A128A11002895
:080FF80083010A128A11382F4F
:02400E00FB3F76
:00000001FF
