:020000040000FA
:060000000A128A11FA2F1A
:100DF2008312031388018316031388010800F2018A
:100E0200F3011A2FF401F5010130F4070318F50A72
:100E12000030F50703307502E83003197402031C31
:100E2200132F142F052F0130F2070318F30A003095
:100E3200F30771087302031D202F70087202031C4E
:100E4200232F242F032F08000A128A11F9260A12CF
:100E52008A117B087C04031D2F2F302F902FF7015E
:100E6200F801831203138801080801388800013051
:100E7200F7070318F80A0030F80708082038880036
:100E8200B830F0000B30F1000A128A1100270A1262
:100E92008A118312031388010130F600770A532F57
:100EA2000310F60DFF3E031D512F7608080488003B
:100EB2000130F7070318F80A0030F807080810385D
:100EC2008800E830F0000330F1000A128A1100278E
:100ED2000A128A118312031388010130F600770A7D
:100EE200742F0310F60DFF3E031D722F76080804BF
:100EF20088000130F7070318F80A0030F8070808DD
:100F020008388800B830F0000B30F1000A128A115C
:100F120000270A128A110130FB000030FC007B031B
:100F22007C04031D952F962F2A2F0330F9000030E1
:100F3200FA00831203138801080808388800013078
:100F4200F9070318FA0A0030FA070808043888007B
:100F5200B830F0000B30F1000A128A1100270A1291
:100F62008A118312031388010130F600790ABB2F1C
:100F72000310F60DFF3E031DB92F76080804880002
:100F82000130F9070318FA0A0030FA070808023894
:100F92008800E830F0000330F1000A128A110027BD
:100FA2000A128A118312031388010130F600790AAA
:100FB200DC2F0310F60DFF3E031DDA2F760808041E
:100FC20088000130F9070318FA0A0030FA07080806
:100FD20001388800B830F0000B30F1000A128A1193
:100FE20000270A128A11FB01FC012A2F0A128A1118
:0E0FF2000028FB01FC0183010A128A11252F41
:02400E00FB3F76
:00000001FF
