:020000040000FA
:060000000A128A11EB2F29
:100CC00001348316031306083F3886000800831298
:100CD000031388018316031388010A128A116126FF
:100CE0000A128A1108003F30F7000A128A1167269B
:100CF0000A128A1101300A128A1193260A128A11E5
:100D0000F8003F3078060319862E872E892E780842
:100D1000F70077080A128A11BD260A128A117A2E64
:100D20000A128A110028F1007108031D982E992ECD
:100D30009E2E8312031306083F39BC2E3F308312C8
:100D400003130605F0003F3070060319A82EA92EE4
:100D5000B02E26080319AD2EAE2EB02EA601992E68
:100D60003F300605F0003F307006031DB82EB92E47
:100D7000BB2EA601A60A3F300800F2000130831204
:100D80000313A007003003180130A1070030031837
:100D90000130A207003003180130A30711302006EC
:100DA00027300319210622042304031DD82ED92E2F
:100DB000EA2F003083120313A3000030A20000309A
:100DC000A1000030A0007D080319E72EE92E0130B4
:100DD000EA2E0030FD00D42F00307C0208300319C9
:100DE0007B020318F42EF52E092F0130F0007B0A48
:100DF000FB2E0310F00DFF3E031DF92E7008FF00BF
:100E00007F0888040130FB070318FC0A0030FC0748
:100E10005C2F00307C02103003197B020318112F65
:100E2000122F232F0130F0007B08F83E013E1A2FCD
:100E30000310F00DFF3E031D182F7008FF3AFF004E
:100E40007F088805022F00307A02083003197902E2
:100E500003182B2F2C2F422F0130F0007908073C6C
:100E6000013E342F0310F00DFF3E031D322F70089A
:100E7000FF007F0888040130F9070318FA0A0030E0
:100E8000FA075C2F00307A02103003197902031838
:100E90004A2F4B2F5C2F0130F00079080F3C013EA8
:100EA000532F0310F00DFF3E031D512F7008FF3A22
:100EB000FF007F0888053B2F10307B067C04031D54
:100EC000622F632FEA2F103079067A04031D692FF1
:100ED0006A2FEA2FF901FA01FB01FC01EA2F003029
:100EE00025020830031924020318772F782F8C2F3E
:100EF0000130F000240A7E2F0310F00DFF3E031D89
:100F00007C2F7008FF007F0888040130A4070318B5
:100F1000A50A0030A507A62F0030250210300319BE
:100F200024020318942F952FA62F0130F0002408D7
:100F3000F83E013E9D2F0310F00DFF3E031D9B2F39
:100F40007008FF3AFF007F088805852F10302406BF
:100F50002504031DAC2FAD2FEA2FA401A501EA2F14
:100F60007D08031DB42FB52FBA2F5530F300FF3085
:100F7000F400BE2FAA30F3000030F400730888009C
:100F8000EA2F7D08031DC52FC62FCB2FF030F500AB
:100F9000FF30F600CF2F0F30F5000030F600750857
:100FA0008800EA2F8801EA2F7208F000F101710829
:100FB000003A0319DC2FD22F7008373A0319C12FDA
:100FC0000C3A0319B02F063A03196F2F033A03198D
:100FD000EC2ED22F08000A128A1160260A128A11FA
:100FE000A600A001A101A201A301A401A501F9018C
:100FF000FA01FB01FC01FD0183010A128A11732E23
:02400E00FB3F76
:00000001FF
