:020000040000FA
:060000000A128A11FC2F18
:10000E00831603138801091189100A128A114820D8
:10001E000A128A110800F300701816281A28831283
:10002E00031309151D288312031309117308F039E0
:10003E0088008914A630F100F10B232800008312EA
:10004E000313891073080F39F10003300310F10DFB
:10005E00FF3E031D2D280310710D88008914A63054
:10006E00F100F10B382800008312031389101B30A6
:10007E00F2009E30F100F10B4228F20B42280000F4
:10008E000800C330F500CD30F400F40B4C28F50B0E
:10009E004C28F00133300A128A1112200A128A11EA
:1000AE001B30F5009E30F400F40B5B28F50B5B283B
:1000BE000000F00133300A128A1112200A128A113E
:1000CE00A630F400F40B69280000F00133300A1258
:1000DE008A1112200A128A11742875280000F00164
:1000EE0002300A128A1112200A128A11A630F40066
:1000FE00F40B7F280000F00128300A128A1112201A
:10010E000A128A11A630F400F40B8B280000F001BD
:10011E0001300A128A1112200A128A110430F500D7
:10012E003D30F400F40B9928F50B99289E28F00128
:10013E000C300A128A1112200A128A11A630F4000B
:10014E00F40BA72800000800F501F11FAF28B02816
:10015E00B728F009F109F00A0319F10AF501F50AB9
:10016E00F31FBA28BB28C428F209F309F20A0319AF
:10017E00F30A0130FF007F08F506F601F70170085B
:10018E0071040319CB28CC280329F401F40ADA28C8
:10019E0001300310F00DF10DFF3E031DD02801308C
:1001AE00FF007F08F407F11FDD28DE28CF2801307D
:1001BE000310F60DF70DFF3E031DDF2871087302C5
:1001CE00031DEB2870087202031CEE28EF28F62898
:1001DE007008F2027108031CF303F3027614013067
:1001EE000310F10CF00CFF3E031DF7280130F40252
:1001FE00031D02290329DE2875080319072908297A
:10020E000D29F609F709F60A0319F70A7708F1001E
:10021E007608F00008000310831203133C0D3D0D09
:10022E00C3004308031D1C291D2926290030BD00CB
:10023E000030BC000030BB000030BA0089293A08FB
:10024E00BE003B08BF003C08C0003D08C1001F3087
:10025E000310C10CC00CBF0CBE0CFF3E031D2F299A
:10026E003E08C200BC17FF30BA05FF30BB05FF3099
:10027E00BC050030BD059630C302C31F472948296F
:10028E0062294308803A973E03184E294F29502978
:10029E001D2901300310BD0CBC0CBB0CBA0CFF3E6B
:1002AE00031D51290130FF007F08C307031D60297C
:1002BE0061295029792920304302031C67296829B6
:1002CE0074291D290130BE000310BA0DBB0DBC0DE3
:1002DE00BD0DBE0B6B290130C3024308031D7829E7
:1002EE0079296929420803197D297E298929BA09A4
:1002FE00BB09BC09BD09BA0A0319BB0A0319BC0A1A
:10030E000319BD0A0800831203134408F0004508C0
:10031E00F100F201F30100300A128A1130220A12A2
:10032E008A11730883120313A7007208A6007108BE
:10033E00A5007008A4004030A3009C30A200283015
:10034E00A100F630A0000A128A11B7240A128A11EF
:10035E00831203132308BD002208BC002108BB0032
:10036E002008BA000A128A1112210A128A11831267
:10037E0003133B08C7003A08C6000A30F0000030ED
:10038E00F1004708F3004608F2000A128A11AB206A
:10039E000A128A11710883120313D0007008CF005D
:1003AE001230F4008030F500C030F6000A128A15C3
:1003BE0022270A128A11013083120313CD00003056
:1003CE00CE004D08483E84000A30F0000030F100A7
:1003DE005008F3004F08F2000A128A15A7270A12D6
:1003EE008A117008303E831380000A30F00000300E
:1003FE00F100831203135008F3004F08F2000A12A3
:10040E008A11AB200A128A11710883120313D000CD
:10041E007008CF00FF30CD070318CE0AFF30CE078D
:10042E004D0A031D1E2A4E0A031D1E2A1F2AE829E5
:10043E006F30CA004330CB00CC014830F40000309E
:10044E00F500C630F6000A128A1522270A128A1102
:10045E000800F80078080319352A362A4A2AF31FAD
:10046E00392A3A2A4A2A7009FA007109FB007209E0
:10047E00FC007309FD00FA0A0319FB0A0319FC0AB2
:10048E000319FD0A522A7308FD007208FC00710858
:10049E00FB007008FA007308720471047004031DE7
:1004AE00592A5A2A632A0030F3000030F200003035
:1004BE00F1000030F000E72A9630F900732A01307F
:1004CE00FF007F08F90701300310FD0CFC0CFB0C3C
:1004DE00FA0CFF3E031D6B2AFE307D05031D782AA4
:1004EE00792A662A952A0130FF007F08F907013024
:1004FE00FA07003003180130FB07003003180130F3
:10050E00FC07003003180130FD0701300310FD0C0D
:10051E00FC0CFB0CFA0CFF3E031D8D2AFF307D05F3
:10052E00031D9A2A9B2A7A2AA72A0130F902013042
:10053E00F4000310FA0DFB0DFC0DFD0DF40BA02ABB
:10054E00FC1BAA2AAB2AB12A023079020318B02A60
:10055E00B12A9C2A7918B42AB52ABD2AFF30FA0589
:10056E00FF30FB057F30FC05FF30FD050310F90C55
:10057E007908F400F501F601F70118300310F40DB7
:10058E00F50DF60DF70DFF3E031DC52A7408FA048E
:10059E007508FB047608FC047708FD047808031937
:1005AE00D92ADA2ADF2AF31FDD2ADE2ADF2AFD17EF
:1005BE007D08F3007C08F2007B08F1007A08F00059
:1005CE0008008312031327088039B1002708A800FA
:1005DE002807B800A61FF42AF52AF62A3814380878
:1005EE000319FA2AFB2A0B2B380A031DFF2A002BAC
:1005FE00082B0030A7000030A6000030A500003008
:10060E00A400A617A701132B0030A7000030A600E8
:10061E000030A5000030A40023088039FF007F08B9
:10062E00B1062308A8002807B900A21F1F2B202BF4
:10063E00212B391439080319252B262B362B390A71
:10064E00031D2A2B2B2B332B0030A3000030A200CE
:10065E000030A1000030A000A217A3013E2B0030F5
:10066E00A3000030A2000030A1000030A00023083B
:10067E00220421042004031D452B462B5F2B003042
:10068E00A7000030A6000030A5000030A400803086
:10069E00A6047F30A7043108FF007F08A7042708AF
:1006AE00A3002608A2002508A1002408A000B62C4D
:1006BE003808031D632B642B6D2B0030A300003014
:1006CE00A2000030A1000030A000B62C3808A8000F
:1006DE00A9012908AB0039082802AA00031CAB03A4
:1006EE002A087F3EB2002B080318013E003EB300DD
:1006FE002708B0002608AF002508AE002408AD007C
:10070E000030A7000030A6000030A5000030A40085
:10071E000030B7000030B6000030B5000030B40035
:10072E00B901E32B390803199D2B9E2BBE2B0130EB
:10073E00A8000310AD0DAE0DAF0DB00DA80BA02B84
:10074E000130A8000310A40DA50DA60DA70DA80B32
:10075E00A92BB71FB32BB42BB52B24140130A80033
:10076E000310B40DB50DB60DB70DA80BB72B23089E
:10077E003002031DCC2B22082F02031DCC2B210887
:10078E002E02031DCC2B20082D02031CCF2BD02BA9
:10079E00DF2B37172008AD022108031C210FAE02F4
:1007AE002208031C220FAF022308031C230FB002E2
:1007BE000130FF007F08B9071A303902031CE82BFD
:1007CE00E92B992B30082F042E042D040319F02B3E
:1007DE00F12B102C3414102C0130A8000310A40D92
:1007EE00A50DA60DA70DA80BF52BB71FFF2B002CE3
:1007FE00012C24140130A8000310B40DB50DB60D54
:10080E00B70DA80B032CFF30B2070318B30AFF3045
:10081E00B307A61F132C142CF32BB901B71F182CDA
:10082E00192C352CFF303405A800FF303505A900F2
:10083E00FF303605AA007F303705AB002B082A049F
:10084E002904280403192C2C2D2C302CB901B90A9B
:10085E00352C241C332C342C352C2D2C3908031913
:10086E00392C3A2C6B2C0130A407003003180130C0
:10087E00A507003003180130A60700300318013019
:10088E00A707271C4B2C4C2C6B2C2408A8002508E2
:10089E00A9002608AA002708AB000130AC002B0DDA
:1008AE00AB0CAA0CA90CA80CAC0B562C2B08A70051
:1008BE002A08A6002908A5002808A4000130B207BE
:1008CE000318B30A0030B3073308803AFF008030B4
:1008DE007F02031D742CFF303202031C772C782C00
:1008EE00862CFF3083120313B2000030B3000030A9
:1008FE00A7000030A6000030A5000030A40083122F
:10090E0003133308803AFF0080307F02031D912CC1
:10091E00013032020318942C952CA22C831203134F
:10092E00B201B3010030A7000030A6000030A500D0
:10093E000030A400B101831203133208B800381C32
:10094E00A92CAA2CAC2CA617B02C7F30FF007F0848
:10095E00A6053808A8000310280CA700522B080083
:10096E008312031323088039AD002308A80028073B
:10097E00B300A21FC32CC42CC52C33143308031987
:10098E00C92CCA2CD92C330A031DCE2CCF2CD72C14
:10099E000030A3000030A2000030A1000030A00003
:1009AE00A217E12C0030A3000030A2000030A100FD
:1009BE000030A00027088039FF007F08AD06270809
:1009CE00A8002807B200A61FED2CEE2CEF2C321437
:1009DE0032080319F32CF42C032D320A031DF82CC4
:1009EE00F92C012D0030A7000030A6000030A50024
:1009FE000030A400A6170B2D0030A7000030A60073
:100A0E000030A5000030A400320803190F2D102D60
:100A1E00152D3308031D142D152D1E2D0030A3008A
:100A2E000030A2000030A1000030A000FB2F2008F3
:100A3E00F00026080A128A15FB260A128A1171087E
:100A4E0083120313B9007008B8003808A800A90172
:100A5E00AA01AB012B08B1002A08B0002908AF008B
:100A6E002808AE003908A800A901AA01AB012B087D
:100A7E00B7002A08B6002908B5002808B4002108D6
:100A8E00F00025080A128A15FB260A128A1171082F
:100A9E0083120313B9007008B8003808A800A90122
:100AAE00AA01AB012808AE07290803110318013E5D
:100ABE000319622DAF072A0803110318013E03190B
:100ACE00692DB0072B0803110318013E0319702D71
:100ADE00B1073908A800A901AA01AB012808B4077B
:100AEE00290803110318013E03197E2DB5072A08A4
:100AFE0003110318013E0319852DB6072B080311A8
:100B0E000318013E03198C2DB7072208F0002408A4
:100B1E000A128A15FB260A128A1171088312031310
:100B2E00B9007008B8003808A800A901AA01AB01E5
:100B3E002808AE07290803110318013E0319A82D32
:100B4E00AF072A0803110318013E0319AF2DB00792
:100B5E002B0803110318013E0319B62DB1073908EE
:100B6E00A800A901AA01AB012808B407290803119E
:100B7E000318013E0319C42DB5072A0803110318E3
:100B8E00013E0319CB2DB6072B0803110318013EA6
:100B9E000319D22DB7070830A8000310AE0DAF0D04
:100BAE00B00DB10DA80BD42D2108F00024080A12A7
:100BBE008A15FB260A128A11710883120313B900D3
:100BCE007008B8003808A8003908A900AA01AB01BE
:100BDE002808AE07290803110318013E0319F82D42
:100BEE00AF072A0803110318013E0319FF2DB007A2
:100BFE002B0803110318013E0319062EB107200816
:100C0E00F00025080A128A15FB260A128A117108AD
:100C1E0083120313B9007008B8003808A800390809
:100C2E00A900AA01AB012808AE0729080311031871
:100C3E00013E0319232EAF072A0803110318013EA4
:100C4E0003192A2EB0072B0803110318013E0319AE
:100C5E00312EB1070830A8000310AE0DAF0DB00D48
:100C6E00B10DA80B332E2008F00024080A128A15A5
:100C7E00FB260A128A11710883120313B900700839
:100C8E00B8003808A8003908A900AA01AB01280845
:100C9E00AE07290803110318013E0319572EAF079B
:100CAE002A0803110318013E03195E2EB0072B0804
:100CBE0003110318013E0319652EB1072108F00038
:100CCE0026080A128A15FB260A128A117108831247
:100CDE000313B9007008B8003808A8003908A90035
:100CEE00AA01AB012808B407290803110318013E15
:100CFE000319822EB5072A0803110318013E0319A2
:100D0E00892EB6072B0803110318013E0319902EE6
:100D1E00B7072208F00025080A128A15FB260A12C8
:100D2E008A11710883120313B9007008B8003808CD
:100D3E00A8003908A900AA01AB012808B4072908A0
:100D4E0003110318013E0319AD2EB5072A0803112E
:100D5E000318013E0319B42EB6072B08031103180E
:100D6E00013E0319BB2EB7072208F00026080A120F
:100D7E008A15FB260A128A11710883120313B90011
:100D8E007008B8003808A8003908A900AA01AB01FC
:100D9E0008300310A80DA90DAA0DAB0DFF3E031DC3
:100DAE00D02E2808B407290803110318013E031991
:100DBE00E12EB5072A0803110318013E0319E82E88
:100DCE00B6072B0803110318013E0319EF2EB707C0
:100DDE002E08A8002F08A9003008AA003108AB0081
:100DEE0018300310AB0CAA0CA90CA80CFF3E031D67
:100DFE00F82E2808B407290803110318013E031919
:100E0E00092FB5072A0803110318013E0319102FE5
:100E1E00B6072B0803110318013E0319172FB70746
:100E2E000830A8000310AE0DAF0DB00DB10DA80B1C
:100E3E00192F33083207A800A901A90D2808823EF0
:100E4E00B80029080318013EFF3EB9004B2F0130B0
:100E5E00A8000310B40DB50DB60DB70DA80B302FAD
:100E6E00B11F3A2F3B2F3C2F34140130A800031032
:100E7E00AE0DAF0DB00DB10DA80B3E2FFF30B80764
:100E8E000318B90AFF30B907B61F4E2F4F2F2E2F5A
:100E9E00B201B11F532F542F702FFF302E05A80013
:100EAE00FF302F05A900FF303005AA007F30310535
:100EBE00AB002B082A04290428040319672F682F76
:100ECE006B2FB201B20A702F341C6E2F6F2F702F42
:100EDE00682F32080319742F752FA62F0130B4070F
:100EEE00003003180130B507003003180130B60783
:100EFE00003003180130B707371C862F872FA62F17
:100F0E003408A8003508A9003608AA003708AB0037
:100F1E000130AC002B0DAB0CAA0CA90CA80CAC0B21
:100F2E00912F2B08B7002A08B6002908B50028080B
:100F3E00B4000130B8070318B90A0030B9073908F0
:100F4E00803AFF0080307F02031DAF2FFF30380242
:100F5E00031CB22FB32FBE2F7F3083120313B700A3
:100F6E008030B6000030B5000030B400EF2F831291
:100F7E0003133908803AFF0080307F02031DC92F0A
:100F8E00013038020318CC2FCD2FD92F0030831209
:100F9E000313B7000030B6000030B5000030B400C7
:100FAE00AD01EF2F831203133808B300FF30B405E1
:100FBE00FF30B5057F30B6050030B705331CE82F7E
:100FCE00E92FEA2FB6173308A8000310280CB70034
:100FDE002D08FF007F08B7043708A3003608A200CB
:100FEE003508A1003408A000080083010A128A15F2
:100FFE00512FFF1B0A2883137F1883170008840ABA
:10100E000319FF0A080008308A000408840A8207C0
:10101E00003452344F344F344D342034543445342C
:10102E004D345034453452344134543452345534A2
:10103E0045340034563441344C34553445343A3406
:02104E0000346C
:101D7E00831603139F17831203131F1408000A12EE
:101D8E008A15BF260A128A150A128A1107200A120C
:101D9E008A150130F4008030F5008030F6000A120A
:101DAE008A1522270A128A150800F5007508F20016
:101DBE0003300310F20DFF3E031DE02E83120313BA
:101DCE001F08C73972049F001F151F19EF2EF02E22
:101DDE00EC2E1E08F400831603131E08F30074087D
:101DEE00F1007308F0000800F800F401F501700826
:101DFE00F200F3017208F6007308F700781C082F42
:101E0E00092F0F2F7608F4070318F50A7708F50740
:101E1E0001300310F60DF70DFF3E031D102F0310BA
:101E2E00F80C7808031D1C2F1D2F052F7508F100C7
:101E3E007408F0000800F00176080A128A111220C8
:101E4E000A128A15402FF001F00A7508FF00740877
:101E5E0084000A128A1500200A128A150A128A11A3
:101E6E0012200A128A150130F4070318F50A003001
:101E7E00F507750883120313FF00740884000A1215
:101E8E008A1500200A128A15003A031D4F2F502F73
:101E9E002A2F08000A128A15C6260A128A15003041
:101EAE000A128A15DC260A128A1571088312031388
:101EBE00D2007008D1005108F0005208F100F20172
:101ECE00F30100300A128A1130220A128A157308A1
:101EDE0083120313A7007208A6007108A5007008EC
:101EEE00A4004130A3002330A200AE30A100143074
:101EFE00A0000A128A11E8220A128A15831203130D
:101F0E002308BD002208BC002108BB002008BA002F
:101F1E000A128A1112210A128A15831203133B0820
:101F2E00D4003A08D3005408C5005308C4000A125E
:101F3E008A118A210A128A15562F0A128A1100282E
:101F4E00F501F31FAB2FAC2FB32FF209F309F20AF1
:101F5E000319F30AF501F50AF11FB62FB72FBC2F9F
:101F6E00F009F109F00A0319F10A70087104031956
:101F7E00C12FC22FF12FF401F40AD02F013003101C
:101F8E00F00DF10DFF3E031DC62F0130FF007F083F
:101F9E00F407F11FD32FD42FC52F71087302031D21
:101FAE00DA2F70087202031CDD2FDE2FE42F70086B
:101FBE00F2027108031CF303F30201300310F10C5B
:101FCE00F00CFF3E031DE52F0130F402031DF02F30
:101FDE00F12FD42F75080319F52FF62FFB2FF209C9
:101FEE00F309F20A0319F30A7308F1007208F000FC
:021FFE000800D9
:02400E00FB3F76
:00000001FF
