:020000040000FA
:060000000A128A110C280F
:10000800FE00030EF2000A08F3000A128A111528EE
:100018000A128A110F28F001F10183010A128A11CC
:100028005228831203130C1D1A281B282D28503020
:1000380070067104031D212822282628043087060B
:10004800F001F1010130F0070318F10A0030F1075F
:100058000C1173088A00720E8300FE0E7E0E0900D2
:1000680001308312031390008E018F010030960037
:10007800643095000B309700831603130C150800A5
:100088008312031387018316031387010A128A1147
:1000980034200A128A118B170B1708000A128A11CA
:0E00A80044200A128A1157280A128A110C28C5
:02400E00FB3F76
:00000001FF
