:020000040000FA
:100000000A128A11EF2F00308A000408840A82073E
:10001000003445344E345434453452342034503452
:1000200041345334533457344F345234443400340D
:040030005F34003405
:100B58000134831603138801091189100A128A11B6
:100B6800E0260A128A1108008316031306080738BC
:100B780086000808F039880081138312031388154A
:100B88000815881408140800F500F00174080A1202
:100B98008A1161260A128A11F001F00A75080A12F0
:100BA8008A1161260A128A1108000A128A11AD25D3
:100BB8000A128A110A128A11B8250A128A1180307B
:100BC800F40001300A128A110F260A128A1108004D
:100BD800F2000A128A1143270A128A11F3007208D6
:100BE800031DF72DF82DFA2D73080E2E730A03191D
:100BF800FE2DFF2D062E79080319032E042E062E2E
:100C0800F901F82D730A031D0A2E0B2E0D2EF9017A
:100C1800F90AFF300800F500F00174080A128A1179
:100C280061260A128A112A2EF001F00A750884003A
:100C38000A128A1103200A128A110A128A116126DD
:100C48000A128A110130FF007F08F5077508840031
:100C58000A128A1103200A128A11003A031D352E3E
:100C6800362E182E0800F800780A03193C2E3D2E5F
:100C7800602E502EC030F4002A300A128A11C8257E
:100C88000A128A11602EC030F4002A300A128A1122
:100C9800C8250A128A11602E7808F600F70177082D
:100CA800003A0319582E472E7608233A03193E2E88
:100CB800093A03193E2E472E0800F3007018652ED6
:100CC800692E8312031309156C2E8312031309115D
:100CD8007308F03988008914A630F100F10B722EE0
:100CE800000083120313891073080F39F1000330D1
:100CF8000310F10DFF3E031D7C2E0310710D8800BB
:100D08008914A630F100F10B872E0000831203131B
:100D180089101B30F2009E30F100F10B912EF20B7E
:100D2800912E000008000A128A11D9250A128A1188
:100D3800203084000630FF0083138001840AFF0BF3
:100D4800A02E053083120313A6000030A700A801C7
:100D5800A71BAF2EB02EAB2EC030F40010300A12F5
:100D68008A110F260A128A11C030F4000C300A12B8
:100D78008A11C8250A128A1101300A128A11EC2533
:100D88000A128A1183120313AF002F0A0319CD2EFA
:100D9800CE2ED62E2F08A0002F080A128A11372629
:100DA8000A128A110130FF007F0883120313A80773
:100DB800AB2E0A128A110028C330F500CD30F4009A
:100DC800F40BE42EF50BE42EF00133300A128A11ED
:100DD80061260A128A111B30F5009E30F400F40BCC
:100DE800F32EF50BF32E0000F00133300A128A11AE
:100DF80061260A128A11A630F400F40B012F0000B4
:100E0800F00133300A128A1161260A128A110C2F56
:100E18000D2F0000F00102300A128A1161260A1211
:100E28008A11A630F400F40B172F0000F0012830C7
:100E38000A128A1161260A128A11A630F400F40BEC
:100E4800232F0000F00101300A128A1161260A12CC
:100E58008A110430F5003D30F400F40B312FF50B06
:100E6800312F362FF0010C300A128A1161260A122E
:100E78008A11A630F400F40B3F2F000008008312FB
:100E8800031388110815881408146430F000003022
:100E9800F100FF30F0070318F10AFF30F107700A7C
:100EA800031D5A2F710A031D5A2F5B2F4D2F8312D2
:100EB80003130618602F612F632F0130EE2F861859
:100EC800662F672F692F0230EE2F06196C2F6D2FB2
:100ED8006F2F0330EE2F881508118814081464301A
:100EE800F0000030F100FF30F0070318F10AFF307E
:100EF800F107700A031D842F710A031D842F852FA3
:100F0800772F8312031306188A2F8B2F8D2F043007
:100F1800EE2F8618902F912F932F0530EE2F06195C
:100F2800962F972F992F0630EE2F881508158810C1
:100F380008146430F0000030F100FF30F0070318A7
:100F4800F10AFF30F107700A031DAE2F710A031D65
:100F5800AE2FAF2FA12F831203130618B42FB52F6E
:100F6800B72F0730EE2F8618BA2FBB2FBD2F0830AA
:100F7800EE2F0619C02FC12FC32F0930EE2F881569
:100F88000815881408106430F0000030F100FF30B4
:100F9800F0070318F10AFF30F107700A031DD82F74
:100FA800710A031DD82FD92FCB2F831203130618CC
:100FB800DE2FDF2FE12F2A30EE2F8618E42FE52FC2
:100FC800E72F0030EE2F0619EA2FEB2FED2F2330F5
:100FD800EE2FFF3008000A128A11AC250A128A1176
:100FE800F900A901AA01AB01AC01AD01AE01AF0145
:080FF80083010A128A11972EF1
:02400E00FB3F76
:00000001FF
