:020000040000FA
:060000000A128A110C280F
:10000800FE00030EF2000A08F3000A128A110529FD
:100018000A128A110F2883134A30FD000230FE00AD
:100028007930FF003D3084000A128A116A220A12D0
:100038008A11CA01CB01CC01CD01CE01CF01D0017B
:10004800D101F501F601F701F80183010A128A11BD
:100058002D280A128A1186220A128A112E3084004B
:100068003D3083120313AA000408AB000B30AC0028
:100078002A08840083130008AD00AA0A2B0884000C
:100088002D088000AB0AAC0B3C28831203134E08E2
:100098004F04031950285128A7280A30A00000301F
:1000A800A1004908A3004808A2000A128A11E42105
:1000B8000A128A118312031320082E3E8400831328
:1000C8000008B9000A30A0000030A1004908A300C8
:1000D8004808A2000A128A112A220A128A118312D7
:1000E800031320082E3E8400831300083804BA0046
:1000F8000A30A0000030A1005108A3005008A20057
:100108000A128A11E4210A128A11831203132008A1
:100118002E3E840083130008BB000A30A000003084
:10012800A1005108A3005008A2000A128A112A222D
:100138000A128A118312031320082E3E84008313A7
:100148000008BC00FB280A30A0000030A1004908C4
:10015800A3004808A2000A128A11E4210A128A118F
:100168008312031320082E3E840083130008B9006D
:100178000A30A0000030A1004908A3004808A200E6
:100188000A128A112A220A128A11831203132008DA
:100198002E3E840083130008BA000A30A000003005
:1001A800A1005108A3005008A2000A128A11E421F4
:1001B8000A128A118312031320082E3E8400831327
:1001C8000008BB000A30A0000030A1005108A300BD
:1001D8005008A2000A128A112A220A128A118312CE
:1001E800031320082E3E840083130008BC00393016
:1001F8000A128A118A210A128A1149280A128A11B6
:100208000C280B1D082909298329831203130108C7
:10021800083E81000130F507003003180130F60769
:10022800003003180130F707003003180130F807D1
:100238001130750627300319760677047804031DF4
:10024800262927293F290030F8000030F700003020
:10025800F6000030F500831203134E084F0403190B
:1002680036293829013039290030F000F1017008A9
:10027800CE007108CF00013083120313CA07003083
:1002880003180130CB07003003180130CC070030C9
:1002980003180130CD0721304A064E3003194B06AA
:1002A8004C044D04031D59295A2982290030831210
:1002B8000313CD000030CC000030CB000030CA0062
:1002C8000130D0070318D10A0030D1073C3050065E
:1002D8005104031D702971298229D001D1010130EF
:1002E800C8070318C90A0030C90718304806490466
:1002F800031D7F2980298229C801C9010B117308B0
:100308008A00720E8300FE0E7E0E0900831203130C
:10031800A800A90129082807A00020088400831341
:10032800000888000430A000290A9C290310A00DA9
:10033800FF3E031D9A290508033920048500003073
:10034800A7000030A6000130A5009030A4000130BD
:1003580083120313A0000030A1000030A200003077
:10036800A3002008A4022108031C210FBC29BD29D1
:10037800A5022208031C220FC229C329A6022308AA
:10038800031C230FC829C929A702240A031DD6293B
:10039800250A031DD629260A031DD629270A031D67
:1003A800D629D729AB290130FF007F088312031310
:1003B800A90704302902031CE229E3298E29080031
:1003C80083120313A501A601200821040319ED29AE
:1003D800EE29252AA401A40AFC2901300310A00D46
:1003E800A10DFF3E031DF2290130FF007F08A4077D
:1003F800A11FFF29002AF12901300310A50DA60D20
:10040800FF3E031D012A21082302031D0D2A20088F
:100418002202031C102A112A182A2008A2022108E5
:10042800031CA303A302251401300310A10CA00C84
:10043800FF3E031D192A0130A402031D242A252A80
:10044800002A2608A1002508A0000800831203132B
:10045800200821040319312A322A612AF401F40AF6
:10046800402A01300310A00DA10DFF3E031D362ABE
:100478000130FF007F08F407A11F432A442A352AC8
:1004880021082302031D4A2A20082202031C4D2AA0
:100498004E2A542A2008A2022108031CA303A302FF
:1004A80001300310A10CA00CFF3E031D552A01309A
:1004B800F402031D602A612A442A2308A1002208A5
:1004C800A00008007E088A007F0882000A128A11AC
:1004D80066220A128A118000840A04087D0603191C
:1004E8000034FF0A0319FE0A6A2A3F3406345B34D3
:1004F8004F3466346D347D3407347F346F34803440
:100508000C3400340A128A1192220A128A110A1231
:100518008A119E220A128A118B1708008316031368
:100528008801050803398500831203130508033978
:100538008500080083160313811281150630831283
:08054800031381008B1608006B
:02400E00FB3F76
:00000001FF
