:020000040000FA
:060000000A128A110C280F
:10000800FE00030EF0000A08F1000A128A116728A0
:100018000A128A110F280A128A1104210A128A1157
:10002800F9000A128A1105210A128A11FA000A1225
:100038008A1106210A128A11FB00A001A101A2015E
:10004800A301F601F701F80183010A128A11CC28ED
:10005800F4000130F6070318F70A0030F707C83034
:1000680076067704031D39283A284728F601F70150
:100078003E307406031D4128422847286430F900A1
:100088000030FA008B167808F200F30173087A0240
:10009800031D502872087902031C53285428582835
:1000A8008312031308145B288312031308106430A7
:1000B8007806031D602861286228F8010130FF00D6
:1000C8007F08F80708000B1D6A286B289B288312F5
:1000D80003130108083E81000130A007003003180F
:1000E8000130A107003003180130A20700300318BF
:1000F8000130A307A1302006863003192106031D0D
:100108008A2822032304031D8A288B289A28003072
:1001180083120313A3000030A2000030A1000030B6
:10012800A0000A30F9000030FA008B120B11710898
:100138008A00700E8300FE0E7E0E0900F30073081D
:10014800031DA728A828AD288312031306083F39E2
:10015800CB283F30831203130605F2003F307206A6
:100168000319B728B828BF287B080319BC28BD285D
:10017800BF28FB01A8283F300605F2003F30720671
:10018800031DC728C828CA28FB01FB0A3F300800FE
:100198000A128A11E2200A128A1101300A128A11FF
:1001A800A2200A128A11F50075080A128A112C2059
:1001B8000A128A11D1280A128A110C2883120313F1
:1001C80088018316031388010A128A11FE200A1275
:1001D8008A110A128A11F4200A128A118B17080050
:1001E80083160313811281150630831203138100CD
:1001F8008B1208008316031306083F388600080090
:060208000A340034013449
:02400E00FB3F76
:00000001FF
