:020000040000FA
:060000000A128A11EE2F26
:100D86000A128A11C9260A128A1108008316031349
:100D96008801091189100A128A1197270A128A11E5
:100DA60008007E088A007F0882000A128A11D4266B
:100DB6000A128A118000840A04087D060319003489
:100DC600FF0A0319FE0AD82EF3007018EB2EEF2E39
:100DD600831203130915F22E8312031309117308E4
:100DE60088008914A630F100F10BF72E000083125B
:100DF600031389101B30F2009E30F100F10B012F16
:100E0600F20B012F00000800F500F00174080A1229
:100E16008A11E7260A128A111E2FF001F00A7508B8
:100E2600840000080A128A11E7260A128A11013084
:100E3600FF007F08F5077508840083130008031D6B
:100E4600252F262F102F080047344F344F344434B3
:100E560020344534763465346E3469346E34673400
:100E6600003400340034003445346D346234653463
:100E7600643464346534643420344934733420343F
:100E860048344F34543400340630831603139F001D
:100E96000A128A11C3260A128A11403084003030A1
:100EA600F6000408F7001030F80076088400831373
:100EB6000008F900F60A7708840079088000F70A26
:100EC600F80B582F503084002030F6000408F70045
:100ED6001030F8007608840083130008F900F60A3B
:100EE6007708840079088000F70AF80B6D2F8030A8
:100EF600F40040300A128A1107270A128A1141307B
:100F0600F700EE30F600F60B862FF70B862F000063
:100F1600C030F40050300A128A1107270A128A11CB
:100F26007A2F0A128A110028C330F500CD30F4005A
:100F3600F40B9B2FF50B9B2FF00130300A128A1110
:100F4600E7260A128A111B30F5009E30F400F40BD6
:100F5600AA2FF50BAA2F0000F00130300A128A11D1
:100F6600E7260A128A11A630F400F40BB82F000007
:100F7600F00130300A128A11E7260A128A11C32FAD
:100F8600C42F0000F00138300A128A11E7260A122F
:100F96008A11A630F400F40BCE2F0000F0010130C8
:100FA6000A128A11E7260A128A110430F5003D302A
:100FB600F400F40BDC2FF50BDC2FE12FF0010C30E5
:100FC6000A128A11E7260A128A11A630F400F40BD7
:100FD600EA2F0000080083134030FD000730FE00B2
:100FE6002730FF00203084000A128A11D8260A1200
:0A0FF6008A1183010A128A11472FA5
:02400E00FB3F76
:00000001FF
