:020000040000FA
:100000000A128A11FC2F00308A000408840A820731
:100010000034483461347234643477346134723477
:100020006534203461346E346434203473346F3476
:100030006634743477346134723465342034633414
:100040006F346D34623469346E34613474346934BD
:060050006F346E34003431
:100D7000831603138601071087100A128A11982719
:100D80000A128A110800F3007018C72ECB2E8312A6
:100D900003130714CE2E8312031307107308860063
:100DA0008714A630F100F10BD32E00008312031339
:100DB00087101B30F2009E30F100F10BDD2EF20B9C
:100DC000DD2E00000800F00175080A128A11C32602
:100DD0000A128A11FB2EF001F00A740884000A122C
:100DE0008A1103200A128A110A128A11C3260A12D2
:100DF0008A110130F407740884000A128A11032052
:100E00000A128A11003A031D062F072FEB2E080045
:100E1000F700F801F901262FF00118300A128A11A3
:100E2000C3260A128A110630F6001330F500AD30E1
:100E3000F400F40B192FF50B192FF60B192F202F97
:100E40000130F8070318F90A0030F9077908803AE9
:100E5000F40080307402031D2F2F77087802031CE2
:100E6000322F332F0C2F0800F700F801F901522F11
:100E7000F0011C300A128A11C3260A128A110630A8
:100E8000F6001330F500AD30F400F40B452FF50BF0
:100E9000452FF60B452F4C2F0130F8070318F90AA0
:100EA0000030F9077908803AF40080307402031D9D
:100EB0005B2F77087802031C5E2F5F2F382F080006
:100EC0000A128A11B8260A128A110130F400803001
:100ED000F5000A128A11E3260A128A1128300A1232
:100EE0008A1134270A128A110330FC008A30FB0071
:100EF0005530FA00FA0B7A2FFB0B7A2FFC0B7A2F66
:100F0000812F28300A128A1108270A128A11033009
:100F1000FC008A30FB005530FA00FA0B8D2FFB0BDA
:100F20008D2FFC0B8D2F942F6E2F0A128A11002803
:100F3000C330F500CD30F400F40B9C2FF50B9C2F43
:100F4000F00130300A128A11C3260A128A11683061
:100F5000F6000030F5001830F400F40BAD2FF50B5F
:100F6000AD2FF60BAD2FB42F0000F00130300A1278
:100F70008A11C3260A128A11A630F400F40BBE2F80
:100F80000000F00130300A128A11C3260A128A11B9
:100F9000C92FCA2F0000F00138300A128A11C32667
:100FA0000A128A110430F5003D30F400F40BD62FFC
:100FB000F50BD62FDB2FF0010E300A128A11C32653
:100FC0000A128A110430F5003D30F400F40BE62FCC
:100FD000F50BE62FEB2FF00101300A128A11C32620
:100FE0000A128A110430F5003D30F400F40BF62F9C
:100FF000F50BF62FFB2F080083010A128A11602FD0
:02400E00FB3F76
:00000001FF
