:020000040000FA
:060000000A128A1110280B
:10000800FE00030E83120313C6000A08C7007F0808
:10001800C8000A128A11482B0A128A11132883125F
:100028000313C901CA01CB01CC0183010A128A1149
:10003800E02B8312031327088039B1002708A80092
:100048002807B800A61F29282A282B28381438087A
:1000580003192F2830284028380A031D342835284A
:100068003D280030A7000030A6000030A500003071
:10007800A400A617A70148280030A7000030A60052
:100088000030A5000030A40023088039FF007F0855
:10009800B1062308A8002807B900A21F542855282C
:1000A80056283914390803195A285B286B28390A45
:1000B800031D5F28602868280030A3000030A200D4
:1000C8000030A1000030A000A217A301732800305F
:1000D800A3000030A2000030A1000030A0002308D7
:1000E800220421042004031D7A287B289428003048
:1000F800A7000030A6000030A5000030A400803022
:10010800A6047F30A7043108FF007F08A70427084A
:10011800A3002608A2002508A1002408A000EB29B6
:100128003808031D98289928A2280030A300003019
:10013800A2000030A1000030A000EB293808A80078
:10014800A9012908AB0039082802AA00031CAB033F
:100158002A087F3EB2002B080318013E003EB30078
:100168002708B0002608AF002508AE002408AD0017
:100178000030A7000030A6000030A5000030A40021
:100188000030B7000030B6000030B5000030B400D1
:10019800B901182939080319D228D328F3280130BE
:1001A800A8000310AD0DAE0DAF0DB00DA80BD528EE
:1001B8000130A8000310A40DA50DA60DA70DA80BCE
:1001C800DE28B71FE828E928EA2824140130A80007
:1001D8000310B40DB50DB60DB70DA80BEC28230808
:1001E8003002031D012922082F02031D01292108BD
:1001F8002E02031D012920082D02031C04290529AC
:10020800142937172008AD022108031C210FAE025C
:100218002208031C220FAF022308031C230FB0027D
:100228000130FF007F08B9071A303902031C1D2965
:100238001E29CE2830082F042E042D040319252941
:1002480026294529341445290130A8000310A40D96
:10025800A50DA60DA70DA80B2A29B71F34293529E6
:10026800362924140130A8000310B40DB50DB60DBD
:10027800B70DA80B3829FF30B2070318B30AFF30AF
:10028800B307A61F482949292829B901B71F4D29AD
:100298004E296A29FF303405A800FF303505A9002A
:1002A800FF303605AA007F303705AB002B082A043B
:1002B800290428040319612962296529B901B90AA1
:1002C8006A29241C682969296A29622939080319B5
:1002D8006E296F29A0290130A407003003180130C6
:1002E800A507003003180130A607003003180130B5
:1002F800A707271C80298129A0292408A8002508E8
:10030800A9002608AA002708AB000130AC002B0D75
:10031800AB0CAA0CA90CA80CAC0B8B292B08A700BA
:100328002A08A6002908A5002808A4000130B20759
:100338000318B30A0030B3073308803AFF0080304F
:100348007F02031DA929FF303202031CAC29AD2905
:10035800BB29FF3083120313B2000030B300003012
:10036800A7000030A6000030A5000030A4008312CA
:1003780003133308803AFF0080307F02031DC6292B
:10038800013032020318C929CA29D7298312031355
:10039800B201B3010030A7000030A6000030A5006C
:1003A8000030A400B101831203133208B800381CCE
:1003B800DE29DF29E129A617E5297F30FF007F081C
:1003C800A6053808A8000310280CA70087280800ED
:1003D800F80078080319F129F229062AF31FF529EC
:1003E800F629062A7009FA007109FB007209FC0057
:1003F8007309FD00FA0A0319FB0A0319FC0A031919
:10040800FD0A0E2A7308FD007208FC007108FB0043
:100418007008FA007308720471047004031D152A29
:10042800162A1F2A0030F3000030F2000030F100D5
:100438000030F000A32A9630F9002F2A0130FF007F
:100448007F08F90701300310FD0CFC0CFB0CFA0CBB
:10045800FF3E031D272AFE307D05031D342A352A59
:10046800222A512A0130FF007F08F9070130FA07D4
:10047800003003180130FB07003003180130FC0777
:10048800003003180130FD0701300310FD0CFC0C8F
:10049800FB0CFA0CFF3E031D492AFF307D05031DA6
:1004A800562A572A362A632A0130F9020130F40005
:1004B8000310FA0DFB0DFC0DFD0DF40B5C2AFC1B63
:1004C800662A672A6D2A0230790203186C2A6D2A77
:1004D800582A7918702A712A792AFF30FA05FF30CC
:1004E800FB057F30FC05FF30FD050310F90C79088A
:1004F800F400F501F601F70118300310F40DF50DBD
:10050800F60DF70DFF3E031D812A7408FA047508DD
:10051800FB047608FC047708FD0478080319952A7B
:10052800962A9B2AF31F992A9A2A9B2AFD177D0847
:10053800F3007C08F2007B08F1007A08F00008005C
:100548000030831203133A05C20000303B05C30094
:1005580080303C05C4007F303D05C5004508440493
:1005680043044204031DB92ABA2AC22A0030BD0036
:100578000030BC000030BB000030BA0000303E053F
:10058800C20000303F05C30080304005C4007F3002
:100598004105C5004508440443044204031DD52A07
:1005A800D62ADE2A0030C1000030C0000030BF006B
:1005B8000030BE00BD1FE12AE22A062B0030C2002F
:1005C8000030C3000030C4008030C5003A08C202C1
:1005D8003B08031C3B0FF12AF22AC3023C08031C08
:1005E8003C0FF72AF82AC4023D08031C3D0FFD2AD8
:1005F800FE2AC5024508BD004408BC004308BB00EC
:100608004208BA00C11F092B0A2B2E2B0030C2004A
:100618000030C3000030C4008030C5003E08C2026C
:100628003F08031C3F0F192B1A2BC3024008031C59
:10063800400F1F2B202BC4024108031C410F252B00
:10064800262BC5024508C1004408C0004308BF0066
:100658004208BE008030BD068030C10641083D0218
:10066800031D402B40083C02031D402B3F083B0262
:10067800031D402B3E083A020318432B442B462BFC
:100688000310472B031408000B1D4B2B4C2BB22BCC
:100698000108083E81004130A3002330A200AE309B
:1006A800A1001430A0004B08F0004C08F100F20142
:1006B800F30100300A128A11EC210A128A11730818
:1006C80083120313A7007208A6007108A50070081A
:1006D800A4000A128A111D200A128A118312031318
:1006E8002308BD002208BC002108BB002008BA006E
:1006F8004908F0004A08F100F201F30100300A123B
:100708008A11EC210A128A11730883120313C1009B
:100718007208C0007108BF007008BE000A128A1172
:10072800A4220A128A11031C9A2B9B2B9F2B83123B
:1007380003130614A22B8312031306100130C907F2
:100748000318CA0A0030CA07643049064A04031D60
:10075800AE2BAF2BB12BC901CA010B114808FF0002
:1007680047088A00460E8300FE0E7E0E0900831697
:100778000313A5002508A20003300310A20DFF3EB5
:10078800031DC12B831203131F08C73983160313D4
:100798002204831203139F001F151F19D42BD52B76
:1007A800D12B1E0883160313A4001E08A3002408D7
:1007B800A1002308A00008000A128A11FB230A12CC
:1007C8008A1101300A128A11BB230A128A11831670
:1007D8000313210883120313CC0083160313200884
:1007E80083120313CB00E52B0A128A1110288312F7
:1007F800031386018316031386010A128A1117242C
:100808000A128A110A128A110C240A128A11080083
:100818008316031381128115063083120313810096
:100828008B168B170800831603139F178312031365
:040838001F14080081
:02400E00FB3F76
:00000001FF
